:100000000C9435000C945D000C945D000C945D0024
:100010000C945D000C945D000C945D000C945D00EC
:100020000C945D000C945D000C945D000C945D00DC
:100030000C945D000C945D000C945D000C945D00CC
:100040000C9415020C945D000C94C4040C940705E8
:100050000C945D000C945D000C945D000C945D00AC
:100060000C945D000C945D00C30511241FBECFEFFE
:10007000D8E0DEBFCDBF11E0A0E0B1E0ECE8FCE0ED
:1000800002C005900D92AC34B107D9F722E0ACE480
:10009000B1E001C01D92A230B207E1F710E0CAE65C
:1000A000D0E004C02297FE010E944006C836D10766
:1000B000C9F70E9425040C9419060C9400008EBD0B
:1000C0000DB407FEFDCF8EB508951F93CF93DF9338
:1000D0001F92CDB7DEB7182F2A9882E069830E945D
:1000E0005F00812F0E945F006981862F0E945F0060
:1000F0002A9A0F90DF91CF911F910895CF93C82F27
:100100002A9883E00E945F008C2F0E945F008FEF8F
:100110000E945F002A9ACF9108951F93CF93DF9397
:1001200000D0CDB7DEB7182F2A9885E04A836983BF
:100130000E945F00812F0E945F006981862F0E94CC
:100140005F004A81842F0E945F002A9A0F900F90CF
:10015000DF91CF911F9108952A980E945F008FEF41
:100160000E945F002A9A0895CF93C82F2A9A229A54
:100170002D982B982C98259A239A249852985A9A1D
:1001800081E58CBD1DBC2A9880EC0E945F002A9AF4
:1001900085E38A95F1F700002A9882E00E945F00CB
:1001A00088E20E945F0082E00E945F0080E90E9476
:1001B0005F008C2F0E945F0083E00E945F002A9AFC
:1001C0008AE20E947E008C1719F0289A80E015C000
:1001D00060E08CE00E94650060E08DE00E946500B8
:1001E00060E680E60E94650060E680E70E946500A8
:1001F00060E08FE00E94650081E0CF91089589B1B1
:1002000082FB882780F991E089270895DF92EF9299
:10021000FF920F931F93CF93DF931F92CDB7DEB75B
:100220008C0180EB0E94AC008983898186FD05C02A
:10023000898187FF50C084E901C080E92A980E9423
:100240005F008FEF0E945F0098E0899F700111248A
:10025000F801F182E0828FEF0E945F00829586951F
:100260008770E82AF801F182E0828FEF0E945F0038
:100270008FEF0E945F008FEF0E945F008F70D82E7B
:10028000880FF8019281917E982B9283898183FB5C
:10029000882780F980FB90F99283E12CF12CED14F2
:1002A00058F48FEF0E945F00F801EE0DFF1D83836D
:1002B000FFEFEF1AFF0AF3CF2A9A898140E086FF09
:1002C00002C061E001C062E08CE20E948D00898181
:1002D00087708F5F01C080E00F90DF91CF911F91F9
:1002E0000F91FF90EF90DF900895862F0C94B4004B
:1002F00040E855E260E070E088E591E00E94420548
:1003000067E08CE491E00E947501882319F060E0B9
:1003100071E002C06CE071E088E591E00E943E036C
:1003200068EE73E080E090E00C948202EF92FF921E
:100330000F931F93CF93DF93CDB7DEB72B970FB6F5
:10034000F894DEBF0FBECDBF0E94FF00882309F4E2
:100350005FC0CE0101960E940601882309F458C0AF
:100360006BE171E088E591E00E94210360914D010D
:1003700070914E014AE050E088E591E00E94F3035D
:100380006CE271E088E591E00E94210369817A8145
:1003900040E150E088E591E00E941F0461E371E0D4
:1003A00088E591E00E94210364E371E088E591E033
:1003B0000E9421037E0184E0E80EF11C00E010E0C1
:1003C0008B8186958F7090E00817190794F4F701D8
:1003D00061917F0140E150E088E591E00E941804BE
:1003E00062E371E088E591E00E9421030F5F1F4FF7
:1003F000E7CF63E371E088E591E00E943E038091DE
:100400004D0190914E01019690934E0180934D01C4
:100410002B960FB6F894DEBF0FBECDBFDF91CF9104
:100420001F910F91FF90EF9008951F920F920FB6BA
:100430000F9211242F933F938F939F93AF93BF936A
:100440008091500190915101A0915201B0915301BE
:1004500030914F0123E0230F2D3720F40196A11D89
:10046000B11D05C026E8230F0296A11DB11D2093E2
:100470004F018093500190935101A0935201B0938A
:1004800053018091540190915501A0915601B09172
:1004900057010196A11DB11D809354019093550100
:1004A000A0935601B0935701BF91AF919F918F9147
:1004B0003F912F910F900FBE0F901F9018953FB74F
:1004C000F8948091540190915501A0915601B091FA
:1004D000570126B5A89B05C02F3F19F00196A11D15
:1004E000B11D3FBF6627782F892F9A2F620F711D8C
:1004F000811D911D42E0660F771F881F991F4A9545
:10050000D1F70895CF92DF92EF92FF92CF93DF93CE
:100510006B017C010E945F02EB01C114D104E10474
:10052000F10479F00E945F026C1B7D0B683E734002
:10053000A0F381E0C81AD108E108F108C851DC4FE6
:10054000ECCFDF91CF91FF90EF90DF90CF900895A7
:10055000789484B5826084BD84B5816084BD85B59E
:10056000826085BD85B5816085BDEEE6F0E0808165
:1005700081608083E1E8F0E0108280818260808386
:10058000808181608083E0E8F0E080818160808309
:10059000E1EBF0E0808184608083E0EBF0E080813B
:1005A00081608083EAE7F0E08081846080838081DD
:1005B0008260808380818160808380818068808385
:1005C0001092C1000895CF92DF92EF92FF920F93A5
:1005D0001F93CF93DF936C017A01EB01E60EF71EB8
:1005E00000E010E0CE15DF0561F06991D601ED91D4
:1005F000FC910190F081E02DC6010995080F191FAB
:10060000F1CFC801DF91CF911F910F91FF90EF9033
:10061000DF90CF9008956115710581F0DB010D9099
:100620000020E9F7AD0141505109461B570BDC0191
:10063000ED91FC910280F381E02D099480E090E03F
:1006400008950C940B03DC01ED91FC910190F08175
:10065000E02D09940F931F93CF93DF93EC016DE08E
:100660000E9423038C016AE0CE010E942303800FC5
:10067000911FDF91CF911F910F9108950F931F93B9
:10068000CF93DF93EC010E940B038C01CE010E94FB
:100690002A03800F911FDF91CF911F910F91089531
:1006A0008F929F92AF92BF92CF92DF92EF92FF9282
:1006B0000F931F93CF93DF93CDB7DEB7A1970FB6FC
:1006C000F894DEBF0FBECDBF7C01C42EE52FCB0159
:1006D000D22E19A221E02D1510F02AE0D22E8E0183
:1006E0000F5D1F4F8D2C912CA12CB12C6C2D7E2FCA
:1006F000A50194010E941C068C2DD29E8019112404
:10070000015011098A3014F4805D01C0895CF80140
:100710008083211531054105510521F0C22EE32FBB
:10072000CA01E4CFB801C7010E940B03A1960FB61E
:10073000F894DEBF0FBECDBFDF91CF911F910F9117
:10074000FF90EF90DF90CF90BF90AF909F908F90F1
:100750000895CF92DF92EF92FF920F931F93CF9362
:10076000DF93EC016A017B012115310579F4E88101
:10077000F9810190F081E02D642FDF91CF911F91DD
:100780000F91FF90EF90DF90CF9009942A303105C0
:10079000E9F477FF1AC06DE20E9423038C0144271D
:1007A0005527BA014C195D096E097F092AE0CE016F
:1007B0000E945003800F911FDF91CF911F910F91E5
:1007C000FF90EF90DF90CF9008952AE0B701A60147
:1007D000CE01DF91CF911F910F91FF90EF90DF90AD
:1007E000CF900C9450030F931F93CF93DF93EC01A2
:1007F0009A01AB01662757FD6095762F0E94A903E9
:100800008C01CE010E942A03800F911FDF91CF91AE
:100810001F910F9108952115310541F4DC01ED91EF
:10082000FC910190F081E02D642F09940C94500309
:100830009A01462F50E060E070E00C940B049A019E
:10084000AB0160E070E00C940B040E94A8020E94CF
:100850007801CEEFD4E00E9496012097E1F30E9448
:10086000FE04F9CFFC0124853585F901E05CFF4FDA
:1008700080819181329620813181821B930B8F730D
:1008800099270895FC0184859585FC01E05CFF4F64
:10089000408151813296208131814217530741F0C6
:1008A0000190F081E02DE80FF91F808190E008951C
:1008B0008FEF9FEF0895FC0184859585FC01E05C36
:1008C000FF4F408151813296208131814217530779
:1008D00079F0A081B181A80FB91F8C91208131815D
:1008E0002F5F3F4F2F7333273183208390E008958C
:1008F0008FEF9FEF0895FC0181A1882329F0A4893F
:10090000B5898C9186FFFBCF11A20895CF93DF9319
:10091000FC0126853785D901A05CBF4F8D919C9144
:10092000119701968F739927E901CE5BDF4F4881BC
:10093000598184179507D9F30D90BC91A02DA20F72
:10094000B31F6C93A685B785A05CBF4F11969C938F
:100950008E93A689B7892C9181E090E0078C02C024
:10096000880F991F0A94E2F7282B2C9381E081A32A
:100970000488F589E02D80818064808381E090E0A7
:10098000DF91CF91089508951F920F920FB60F92A5
:1009900011242F933F934F938F939F93EF93FF9344
:1009A0008091C00082FD1CC04091C6008091FE0174
:1009B0009091FF0101968F73992720910002309149
:1009C00001028217930771F0E091FE01F091FF019F
:1009D000E254FE4F40839093FF018093FE0102C0DA
:1009E0008091C600FF91EF919F918F914F913F9120
:1009F0002F910F900FBE0F901F90189588E591E0F2
:100A00000E943204892B11F00C94C30408951F92A4
:100A10000F920FB60F9211242F933F938F939F93B2
:100A2000EF93FF932091BA013091BB018091BC01FB
:100A30009091BD012817390731F48091C1008F7D55
:100A40008093C10014C0E091BC01F091BD01E65853
:100A5000FE4F20818091BC019091BD0101968F7362
:100A600099279093BD018093BC012093C600FF910C
:100A7000EF919F918F913F912F910F900FBE0F900B
:100A80001F901895CF92DF92EF92FF92CF93DF9352
:100A9000EC016A017B01411581EE58076105710582
:100AA000F9F0EC89FD8981E090E008A002C0880F90
:100AB000991F0A94E2F7808360E079E08DE390E08B
:100AC000A70196010E941C062150310941095109D4
:100AD0005695479537952795211580E1380798F069
:100AE000EC89FD89108260E874E88EE190E0A7014E
:100AF00096010E941C062150310941095109569561
:100B0000479537952795E889F9893083EA89FB89E4
:100B1000208319A2EE89FF89408181E090E09C0149
:100B20000C8C02C0220F331F0A94E2F7422B408341
:100B3000EE89FF8940819C010D8C02C0220F331F7A
:100B40000A94E2F7422B4083EE89FF8940819C01A1
:100B50000E8C02C0220F331F0A94E2F7422B40830F
:100B6000EE89FF8920810F8C02C0880F991F0A949B
:100B7000E2F7809582238083DF91CF91FF90EF9001
:100B8000DF90CF90089510925B0110925A0188EE89
:100B900093E0A0E0B0E080935C0190935D01A093AE
:100BA0005E01B0935F018FE391E0909359018093D0
:100BB00058018EEB91E090936501809364018AE780
:100BC00091E0909367018093660185EC90E09093AB
:100BD00069018093680184EC90E090936B018093AD
:100BE0006A0180EC90E090936D0180936C0181EC40
:100BF00090E090936F0180936E0182EC90E090936F
:100C000071018093700186EC90E090937301809362
:100C1000720184E08093740183E08093750187E022
:100C20008093760185E08093770181E0809378015D
:100C30000895F8940C944406A1E21A2EAA1BBB1B3B
:100C4000FD010DC0AA1FBB1FEE1FFF1FA217B30798
:100C5000E407F50720F0A21BB30BE40BF50B661FAE
:100C6000771F881F991F1A9469F760957095809572
:100C700090959B01AC01BD01CF010895EE0FFF1FC0
:0C0C80000590F491E02D0994F894FFCF4A
:100C8C0043414E20496E6974206F6B0043616E279F
:100C9C007420496E69742043414E00203E3E5374CB
:100CAC00617274206C6F6F702E2E2E0049443A20A6
:100CBC00002C2000446174613A2000000000008682
:0C0CCC0004E30232045B0442047B0400D9
:00000001FF
