:100000000C9435000C945D000C945D000C945D0024
:100010000C945D000C945D000C945D000C945D00EC
:100020000C945D000C945D000C945D000C945D00DC
:100030000C945D000C945D000C945D000C945D00CC
:100040000C94BE030C945D000C9422060C9465067F
:100050000C945D000C945D000C945D000C945D00AC
:100060000C945D000C945D00210711241FBECFEF9E
:10007000D8E0DEBFCDBF11E0A0E0B1E0E8E4FFE0F2
:1000800002C005900D92A43BB107D9F722E0A4EB82
:10009000B1E001C01D92A237B207E1F710E0CAE655
:1000A000D0E004C02297FE010E949E07C836D10707
:1000B000C9F70E9483050C9477070C9400008EBD4D
:1000C0000DB407FEFDCF8EB508951F93CF93DF9338
:1000D0001F92CDB7DEB7182F2A9882E069830E945D
:1000E0005F00812F0E945F006981862F0E945F0060
:1000F0002A9A0F90DF91CF911F910895CF93C82F27
:100100002A9883E00E945F008C2F0E945F008FEF8F
:100110000E945F002A9ACF9108951F93CF93DF9397
:1001200000D0CDB7DEB7182F2A9885E04A836983BF
:100130000E945F00812F0E945F006981862F0E94CC
:100140005F004A81842F0E945F002A9A0F900F90CF
:10015000DF91CF911F9108952A980E945F008FEF41
:100160000E945F002A9A0895CF93C82F2A9A229A54
:100170002D982B982C98259A239A249852985A9A1D
:1001800081E58CBD1DBC2A9880EC0E945F002A9AF4
:1001900085E38A95F1F700002A9882E00E945F00CB
:1001A00088E20E945F0082E00E945F0080E90E9476
:1001B0005F008C2F0E945F0083E00E945F002A9AFC
:1001C0008AE20E947E008C1719F0289A80E015C000
:1001D00060E08CE00E94650060E08DE00E946500B8
:1001E00060E680E60E94650060E680E70E946500A8
:1001F00060E08FE00E94650081E0CF91089589B1B1
:1002000082FB882780F991E089270895DF92EF9299
:10021000FF920F931F93CF93DF931F92CDB7DEB75B
:100220008C0180EB0E94AC008983898186FD05C02A
:10023000898187FF50C084E901C080E92A980E9423
:100240005F008FEF0E945F0098E0899F700111248A
:10025000F801F182E0828FEF0E945F00829586951F
:100260008770E82AF801F182E0828FEF0E945F0038
:100270008FEF0E945F008FEF0E945F008F70D82E7B
:10028000880FF8019281917E982B9283898183FB5C
:10029000882780F980FB90F99283E12CF12CED14F2
:1002A00058F48FEF0E945F00F801EE0DFF1D83836D
:1002B000FFEFEF1AFF0AF3CF2A9A898140E086FF09
:1002C00002C061E001C062E08CE20E948D00898181
:1002D00087708F5F01C080E00F90DF91CF911F91F9
:1002E0000F91FF90EF90DF900895CF92DF92EF9201
:1002F000FF920F931F93CF93DF931F92CDB7DEB77B
:100300008C0180EA0E94AC008983898182FF09C048
:10031000898184FF08C0898186FD53C044E0D42EC2
:1003200004C0D12C02C032E0D32E2A988D2D8064D7
:100330000E945F00F8018081918123E09695879566
:100340002A95E1F70E945F00F80180818295880F6D
:10035000807E0E945F0080E00E945F0080E00E943B
:100360005F00F8018281C82EC694FC2DFF70CF2E4D
:1003700080FF05C08F2F80640E945F0011C08F2F07
:100380000E945F00E12CF12CEC1450F4F801EE0D0A
:10039000FF1D83810E945F008FEFE81AF80AF4CFF7
:1003A0002A9A95E09A95F1F700002A98D11002C098
:1003B000DD24D3948D2D80680E945F002A9A8D2DB4
:1003C00001C080E00F90DF91CF911F910F91FF90BE
:1003D000EF90DF90CF900895862F0C94B400EF92A9
:1003E000FF920F931F93CF93DF93CDB7DEB72B9779
:1003F0000FB6F894DEBF0FBECDBFE982FA820B8341
:100400001C832D833E834F83588769877A878B8728
:1004100060E071E088EC91E00E94CA0469817A8111
:1004200040E150E088EC91E00E947D0565E071E0DC
:1004300088EC91E00E94CA0468E071E088EC91E0E9
:100440000E94CA047E0184E0E80EF11C00E010E086
:100450008B8186958F7090E00817190794F4F70147
:1004600061917F0140E150E088EC91E00E945F05DE
:1004700066E071E088EC91E00E94CA040F5F1F4FB4
:10048000E7CF67E071E088EC91E00E94E7042B96EB
:100490000FB6F894DEBF0FBECDBFDF91CF911F9195
:1004A0000F91FF90EF900895EF92FF920F931F939B
:1004B000CF93DF93EC010E94FF00882301F16FE0EE
:1004C00071E088EC91E00E94E704CE010E940601F1
:1004D0008823A9F06AE171E088EC91E00E94CA04E7
:1004E000E880F9800A811B812C813D814E815F81EA
:1004F000688579858A850E94EF0181E00DC065E2FB
:1005000071E088EC91E00E94E7046AE070E080E02E
:1005100090E00E942B0480E0DF91CF911F910F911A
:10052000FF90EF900895EF92FF920F931F93CF9358
:10053000DF93CDB7DEB72B970FB6F894DEBF0FBEB3
:10054000CDBF643061F0623051F04AE050E088EC99
:1005500091E00E94660580E090E00E9477076F704E
:10056000660F2B81217E262B2B839A838983FE01A4
:10057000349680E090E06FEF70E09B01082E01C0A0
:10058000220F0A94EAF724232193029680319105E1
:10059000A1F7CE0101960E94750166E371E088EC37
:1005A00091E00E94CA04E980FA800B811C812D81B0
:1005B0003E814F81588569857A858B850E94EF0140
:1005C0002B960FB6F894DEBF0FBECDBFDF91CF9153
:1005D0001F910F91FF90EF90089540E052EC61E081
:1005E00070E088EC91E00E94A00667E084EB91E067
:1005F0000E94EC01882319F060E471E002C06CE411
:1006000071E088EC91E00E94E70468EE73E080E01E
:1006100090E00E942B046BE571E088EC91E00C9473
:10062000E7041092BE011092BD011092BC0110921D
:10063000BB011092BA011092B9011092B801109248
:10064000B7011092B6011092B50168EE73E080E038
:1006500090E00E942B0465E671E088EC91E00E9436
:10066000E7046FE771E088EC91E00E94E70468EE30
:1006700073E080E090E00E942B0440E050E064E0F2
:1006800080E190E00E94930261E070E080E090E001
:100690000E942B04C0E0D0E0CE010E94540240E052
:1006A00051E064E080E190E00E94930261E070E03C
:1006B00080E090E00E942B04CE010E94540240E0B2
:1006C0005BE362E080E190E00E9493026AE070E008
:1006D00080E090E00E942B04CE010E94540240E092
:1006E0005CE362E080E190E00E9493026AE070E0E7
:1006F00080E090E00E942B04CE010E9454026BE83F
:1007000071E088EC91E00E94E70440E051E064E091
:1007100080E290E00E9493026AE070E080E090E066
:100720000E942B04CE010E94540240E051E064E09C
:1007300080E190E00E9493026AE070E080E090E047
:100740000E942B04CE010E9454026AE070E080E017
:1007500090E00E942B04CE010E9454026AE070E0F7
:1007600080E090E00E942B04CE010E9454026FE8CA
:1007700071E088EC91E00E94E704FFCF1F920F9296
:100780000FB60F9211242F933F938F939F93AF93A4
:10079000BF938091C0019091C101A091C201B0911D
:1007A000C3013091BF0123E0230F2D3720F40196C0
:1007B000A11DB11D05C026E8230F0296A11DB11D84
:1007C0002093BF018093C0019093C101A093C20107
:1007D000B093C3018091C4019091C501A091C6015D
:1007E000B091C7010196A11DB11D8093C4019093E2
:1007F000C501A093C601B093C701BF91AF919F916E
:100800008F913F912F910F900FBE0F901F901895D1
:100810003FB7F8948091C4019091C501A091C601A1
:10082000B091C70126B5A89B05C02F3F19F00196CE
:10083000A11DB11D3FBF6627782F892F9A2F620F08
:10084000711D811D911D42E0660F771F881F991F42
:100850004A95D1F70895CF92DF92EF92FF92CF930E
:10086000DF936B017C010E940804EB01C114D104E9
:10087000E104F10479F00E9408046C1B7D0B683ED2
:100880007340A0F381E0C81AD108E108F108C8510B
:10089000DC4FECCFDF91CF91FF90EF90DF90CF90C6
:1008A0000895789484B5826084BD84B5816084BDE8
:1008B00085B5826085BD85B5816085BDEEE6F0E0D9
:1008C000808181608083E1E8F0E010828081826035
:1008D0008083808181608083E0E8F0E080818160B6
:1008E0008083E1EBF0E0808184608083E0EBF0E0E6
:1008F000808181608083EAE7F0E08081846080838A
:100900008081826080838081816080838081806833
:1009100080831092C1000895CF92DF92EF92FF92F0
:100920000F931F93CF93DF936C017A01EB01E60ED7
:10093000F71E00E010E0CE15DF0561F06991D601E9
:10094000ED91FC910190F081E02DC6010995080F11
:10095000191FF1CFC801DF91CF911F910F91FF9027
:10096000EF90DF90CF9008956115710581F0DB0164
:100970000D900020E9F7AD0141505109461B570B7E
:10098000DC01ED91FC910280F381E02D099480E07F
:1009900090E008950C94B404DC01ED91FC91019079
:1009A000F081E02D09940F931F93CF93DF93EC0117
:1009B0006DE00E94CC048C016AE0CE010E94CC0460
:1009C000800F911FDF91CF911F910F9108950F9389
:1009D0001F93CF93DF93EC010E94B4048C01CE01EE
:1009E0000E94D304800F911FDF91CF911F910F912F
:1009F00008958F929F92AF92BF92CF92DF92EF9223
:100A0000FF920F931F93CF93DF93CDB7DEB7A197DC
:100A10000FB6F894DEBF0FBECDBF7C01C42EE52F0C
:100A2000CB01D22E19A221E02D1510F02AE0D22EF2
:100A30008E010F5D1F4F8D2C912CA12CB12C6C2D94
:100A40007E2FA50194010E947A078C2DD29E8019D9
:100A50001124015011098A3014F4805D01C0895CB1
:100A6000F8018083211531054105510521F0C22E81
:100A7000E32FCA01E4CFB801C7010E94B404A196D4
:100A80000FB6F894DEBF0FBECDBFDF91CF911F919F
:100A90000F91FF90EF90DF90CF90BF90AF909F901D
:100AA0008F9008952115310541F4DC01ED91FC9101
:100AB0000190F081E02D642F09940C94F9049A01BF
:100AC000462F50E060E070E00C9452050F931F93A6
:100AD000CF93DF93EC019A01462F50E060E070E085
:100AE0000E9452058C01CE010E94D304800F911FF9
:100AF000DF91CF911F910F9108959A01AB0160E0B2
:100B000070E00C9452050E9451040E94ED02CCE565
:100B1000D6E00E9411032097E1F30E945C06F9CF12
:100B2000FC0124853585F901E05CFF4F80819181CE
:100B3000329620813181821B930B8F739927089500
:100B4000FC0184859585FC01E05CFF4F408151816B
:100B50003296208131814217530741F00190F08194
:100B6000E02DE80FF91F808190E008958FEF9FEF4F
:100B70000895FC0184859585FC01E05CFF4F408170
:100B800051813296208131814217530779F0A0813B
:100B9000B181A80FB91F8C91208131812F5F3F4F08
:100BA0002F7333273183208390E008958FEF9FEFD9
:100BB0000895FC0181A1882329F0A489B5898C912D
:100BC00086FFFBCF11A20895CF93DF93FC0126850A
:100BD0003785D901A05CBF4F8D919C9111970196EB
:100BE0008F739927E901CE5BDF4F488159818417C4
:100BF0009507D9F30D90BC91A02DA20FB31F6C9354
:100C0000A685B785A05CBF4F11969C938E93A6894D
:100C1000B7892C9181E090E0078C02C0880F991F62
:100C20000A94E2F7282B2C9381E081A30488F589AC
:100C3000E02D80818064808381E090E0DF91CF911E
:100C4000089508951F920F920FB60F9211242F93BB
:100C50003F934F938F939F93EF93FF938091C000A7
:100C600082FD1CC04091C60080916E0290916F027F
:100C700001968F739927209170023091710282172B
:100C8000930771F0E0916E02F0916F02E25DFD4F0B
:100C9000408390936F0280936E0202C08091C600E1
:100CA000FF91EF919F918F914F913F912F910F90D5
:100CB0000FBE0F901F90189588EC91E00E94900550
:100CC000892B11F00C94210608951F920F920FB6F4
:100CD0000F9211242F933F938F939F93EF93FF9342
:100CE00020912A0230912B0280912C0290912D02AA
:100CF0002817390731F48091C1008F7D8093C1009E
:100D000014C0E0912C02F0912D02E651FE4F20819B
:100D100080912C0290912D0201968F7399279093C8
:100D20002D0280932C022093C600FF91EF919F919A
:100D30008F913F912F910F900FBE0F901F9018959C
:100D4000CF92DF92EF92FF92CF93DF93EC016A0193
:100D50007B01411581EE580761057105F9F0EC89B9
:100D6000FD8981E090E008A002C0880F991F0A94D5
:100D7000E2F7808360E079E08DE390E0A7019601DF
:100D80000E947A072150310941095109569547952A
:100D900037952795211580E1380798F0EC89FD8972
:100DA000108260E874E88EE190E0A70196010E944D
:100DB0007A072150310941095109569547953795D0
:100DC0002795E889F9893083EA89FB89208319A26C
:100DD000EE89FF89408181E090E09C010C8C02C08B
:100DE000220F331F0A94E2F7422B4083EE89FF89DA
:100DF00040819C010D8C02C0220F331F0A94E2F740
:100E0000422B4083EE89FF8940819C010E8C02C0F9
:100E1000220F331F0A94E2F7422B4083EE89FF89A9
:100E200020810F8C02C0880F991F0A94E2F78095E9
:100E300082238083DF91CF91FF90EF90DF90CF905E
:100E400008951092CB011092CA0188EE93E0A0E0C1
:100E5000B0E08093CC019093CD01A093CE01B093EC
:100E6000CF0188EA91E09093C9018093C8018EE296
:100E700092E09093D5018093D4018AEE91E0909313
:100E8000D7018093D60185EC90E09093D9018093AF
:100E9000D80184EC90E09093DB018093DA0180EC40
:100EA00090E09093DD018093DC0181EC90E09093E1
:100EB000DF018093DE0182EC90E09093E10180936A
:100EC000E00186EC90E09093E3018093E20184E0FE
:100ED0008093E40183E08093E50187E08093E6015D
:100EE00085E08093E70181E08093E8010895F8941C
:100EF0000C94A207A1E21A2EAA1BBB1BFD010DC078
:100F0000AA1FBB1FEE1FFF1FA217B307E407F507B9
:100F100020F0A21BB30BE40BF50B661F771F881F95
:100F2000991F1A9469F760957095809590959B012B
:100F3000AC01BD01CF010895EE0FFF1F0590F491A4
:080F4000E02D0994F894FFCFA5
:100F480049443A20002C2000446174613A2000474B
:100F58006F7420736D74672121002020203E476F35
:100F680074203A20003E476F74206E6F20726573BC
:100F7800706F6E7365003E3E53454E5420203A0014
:100F880043414E20496E6974206F6B0043616E27A0
:100F98007420496E69742043414E00656E64207365
:100FA800657475700020203E5374617274207570EA
:100FB8002043414E206379636C65202E2E2E004815
:100FC800656C6C6F576F726C642100454E44002E3F
:100FD8002E2E20426174746572792073687574646A
:100FE8006F776E0000000000E4058C049005B905D9
:040FF800A005D90572
:00000001FF
